FI00715001RUSLI                                   AT498685    3INPekerja Baru                  PEKERJA BARU                            081120152704201600700000002
FI00715002NASIAH                                  AT498686    3INPekerja Baru                  PEKERJA BARU                            081120152704201600700000002
FI00716003MUHAMAD FADLI                           AT499150    3INPekerja Baru                  PEKERJA BARU                            100120162704201600700000002
FI00716004RIZAL                                   B1260229    3INPekerja Baru                  PEKERJA BARU                            100120162704201600700000002
FI00716005FADLI                                   B1955460    3INPekerja Baru                  PEKERJA BARU                            100120162704201600700000002
FI00716006IRHAM                                   A8872177    3INPekerja Baru                  PEKERJA BARU                            100120162704201600700000002
FI00716007AHMAD MURSALIN                          AT399196    3INPekerja Baru                  PEKERJA BARU                            040220162704201600700000002
FI00716008IRPAN HADI                              B2591899    3INPekerja Baru                  PEKERJA BARU                            040220162704201600700000002
FI00716009MAWARDI                                 B2713774    3INPekerja Baru                  PEKERJA BARU                            040220162704201600700000002
FI00716010MUHAMAD RIPAI                           B2713630    3INPekerja Baru                  PEKERJA BARU                            040220162704201600700000002
FI00716011MUSTAIM                                 B2713531    3INPekerja Baru                  PEKERJA BARU                            040220162704201600700000002
