FI16613161ANWAR                                   AS773417    2IN22112013261120131661166pkjmast72.asc              Pekerja Baru                  FTPSB JENGKA 22                         0000000
FI16613162MUNGKAR                                 AS702997    2IN22112013261120131661166pkjmast72.asc              Pekerja Baru                  FTPSB JENGKA 22                         0000000
FI16613163SAMSUL WADI                             AS773386    2IN22112013261120131661166pkjmast72.asc              Pekerja Baru                  FTPSB JENGKA 22                         0000000
FI16613164TAESIR ARIANTO                          AS815345    2IN22112013261120131661166pkjmast72.asc              Pekerja Baru                  FTPSB JENGKA 22                         0000000
