FI16615037MURSAHAN                                AR636964    2IN16122015221220151661166pkjmast90.asc                                            PEKERJA BARU                            0000000
FI16615038MUHAMMAD NASRULLOH                      AT452626    2IN16122015221220151661166pkjmast90.asc                                            PEKERJA BARU                            0000000
FI16615039NASRUL                                  AT452430    2IN16122015221220151661166pkjmast90.asc                                            PEKERJA BARU                            0000000
FI16615040SUHAEDI                                 B1727155    2IN16122015221220151661166pkjmast90.asc                                            PEKERJA BARU                            0000000
FI16615041MAHSUN                                  AT452434    2IN16122015221220151661166pkjmast90.asc                                            PEKERJA BARU                            0000000
