FI16613157BURHANUDIN                              AS773754    2IN08112013151020131661166pkjmast71.asc                                            FTPSB JENGKA 22                         0000000
FI16613158MAN                                     AS773753    2IN08112013151020131661166pkjmast71.asc                                            FTPSB JENGKA 22                         0000000
FI16613159HERMAN                                  AS772852    2IN08112013151020131661166pkjmast71.asc                                            FTPSB JENGKA 22                         0000000
FI16613160ARSYAH                                  A5907240    2IN08112013151020131661166pkjmast71.asc                                            FTPSB JENGKA 22                         0000000
