FI16617042SAHNAN                                  AT941902    2INPekerja Baru                  RKM.02.16.FTP-13                        170120171401201716600000002
FI16617043MUHAMAD JAYADI                          AT941948    2INPekerja Baru                  RKM.02.16.FTP-13                        170120171401201716600000002
FI16617044SUBAEDI                                 B4959820    2INPekerja Baru                  RKM.03.16.FTP-7                         170120171401201716600000002
FI16617045MUHADI                                  AT398330    2INPekerja Baru                  RKM.03.16.FTP-7                         170120171401201716600000002
FI16617046ABDUL MAAT                              B4961583    2INPekerja Baru                  RKM.03.16.FTP-7                         170120171401201716600000002
