TD16612147CHAKRABORTY NEPAL                       K1199065    2ID10122012011220121661166pkjmast60.asc              Pekerja Baru                  PERMOHONAN PEKERJA BARU                 0000000
TD16612148GHOSH TARAKNATH                         J1871198    2ID10122012011220121661166pkjmast60.asc              Pekerja Baru                  PERMOHONAN PEKERJA BARU                 0000000
TD16612149HALDER BARUN                            J4853888    2ID10122012011220121661166pkjmast60.asc              Pekerja Baru                  PERMOHONAN PEKERJA BARU                 0000000
TD16612150HALDER MILAN                            J9604006    2ID10122012011220121661166pkjmast60.asc              Pekerja Baru                  PERMOHONAN PEKERJA BARU                 0000000
TD16612151MALLICK SUSHANTA                        H1203968    1ID10122012011220121661166pkjmast60.asc              Pekerja Baru                  PERMOHONAN PEKERJA BARU                 0000000
