I166120129ARIPIN                                  AR533827    2IN30062012060720121661166pkjmast57.asc              Pekerja Baru                  FTPSB JENGKA 22                         0000000
I166120130HERI KURNIADI                           AR533688    2IN30062012060720121661166pkjmast57.asc              Pekerja Baru                  FTPSB JENGKA 22                         0000000
I166120131MARSUMI                                 AR533685    2IN30062012060720121661166pkjmast57.asc              Pekerja Baru                  FTPSB JENGKA 22                         0000000
I166120132MUSNAN                                  AR533684    2IN30062012060720121661166pkjmast57.asc              Pekerja Baru                  FTPSB JENGKA 22                         0000000
