FI16615016SAHARUDIN                               A8256653    2IN25032015060420151661166pkjmast79.asc              Pekerja Baru                  FTPSB JENGKA 22                         0000000
FI16615017SABAR                                   AP624110    2IN25032015060420151661166pkjmast79.asc              Pekerja Baru                  FTPSB JENGKA 22                         0000000
FI16615018ZARWAN                                  AR241037    2IN25032015060420151661166pkjmast79.asc              Pekerja Baru                  FTPSB JENGKA 22                         0000000
FI16615019HASAN BASRI                             AR968995    2IN25032015060420151661166pkjmast79.asc              Pekerja Baru                  FTPSB JENGKA 22                         0000000
FI16615020HUMAEDI                                 A8257340    2IN25032015060420151661166pkjmast79.asc              Pekerja Baru                  FTPSB JENGKA 22                         0000000
FI16615021MULYADI                                 AS043673    2IN25032015060420151661166pkjmast79.asc              Pekerja Baru                  FTPSB JENGKA 22                         0000000
FI16615022HARDINATA                               A9091181    2IN02042015060420151661166pkjmast79.asc              Pekerja Baru                  FTPSB JENGKA 22                         0000000
FI16615023IRWAN SUSANTO                           A9091173    2IN02042015060420151661166pkjmast79.asc              Pekerja Baru                  FTPSB JENGKA 22                         0000000
FI16615024SAHDAN                                  A9091178    2IN02042015060420151661166pkjmast79.asc              Pekerja Baru                  FTPSB JENGKA 22                         0000000
FI16615025SAMSUL BAHRI                            A9091179    2IN02042015060420151661166pkjmast79.asc              Pekerja Baru                  FTPSB JENGKA 22                         0000000
FI16615026SAMSUL RIZAL                            A9091168    2IN02042015060420151661166pkjmast79.asc              Pekerja Baru                  FTPSB JENGKA 22                         0000000
