FI16614008ANDI SAPARI                             AT072488    2IN18122014241220141661166pkjmast77.asc              Pekerja Baru                  FTPSB JENGKA 22                         0000000
FI16614009KEMAN                                   AT070023    2IN18122014241220141661166pkjmast77.asc              Pekerja Baru                  FTPSB JENGKA 22                         0000000
FI16614010MUHAMAD DAUD                            AT071414    2IN18122014241220141661166pkjmast77.asc              Pekerja Baru                  FTPSB JENGKA 22                         0000000
FI16614011MUHAMAD NURASIM                         AT032678    2IN18122014241220141661166pkjmast77.asc              Pekerja Baru                  FTPSB JENGKA 22                         0000000
