TD16612139BISWAS SANJAY KUMAR                     H0171480    2ID05122012061220121661166pkjmast59.asc              Pekerja Baru                  FTPSB JENGKA 22                         0000000
TD16612140GHOSH BISWAJIT                          H1407369    2ID05122012061220121661166pkjmast59.asc              Pekerja Baru                  FTPSB JENGKA 22                         0000000
TD16612141GHOSH MANGAL                            J0107257    2ID05122012061220121661166pkjmast59.asc              Pekerja Baru                  FTPSB JENGKA 22                         0000000
TD16612142HALDER BIKASH                           H2568691    2ID05122012061220121661166pkjmast59.asc              Pekerja Baru                  FTPSB JENGKA 22                         0000000
TD16612143HALDER UTTAM                            J6120498    2ID05122012061220121661166pkjmast59.asc              Pekerja Baru                  FTPSB JENGKA 22                         0000000
TD16612144KUDDUS RUHUL                            J6813322    2ID05122012061220121661166pkjmast59.asc              Pekerja Baru                  FTPSB JENGKA 22                         0000000
TD16612145MANDAL RAFIKUL                          F2020724    2ID05122012061220121661166pkjmast59.asc              Pekerja Baru                  FTPSB JENGKA 22                         0000000
TD16612146MANDAL HAFIJUR RAHAMAN                  F6207954    2ID05122012061220121661166pkjmast59.asc              Pekerja Baru                  FTPSB JENGKA 22                         0000000
