FI16614004AGUS                                    AT070934    2IN08112014101120141661166pkjmast76.asc              Pekerja Baru                  FTPSB JENGKA 22                         0000000
FI16614005ARIS                                    AS931265    2IN08112014101120141661166pkjmast76.asc              Pekerja Baru                  FTPSB JENGKA 22                         0000000
FI16614006MUHAMAD RAMDAN                          AT070948    3IN08112014101120141661166pkjmast76.asc              Pekerja Baru                  FTPSB JENGKA 22                         0000000
FI16614007ZAENAL ABIDIN                           A7570909    3IN08112014101120141661166pkjmast76.asc              Pekerja Baru                  FTPSB JENGKA 22                         0000000
