FI16615032ARIP ANTONI                             AT399333    2IN20102015230920151661166pkjmast85.asc              Pekerja Baru                  FTPSB JENGKA 22                         0000000
FI16615033MUHAMAD YUSNI                           A8366255    2IN20102015230920151661166pkjmast85.asc              Pekerja Baru                  FTPSB JENGKA 22                         0000000
FI16615034ARIF RAHMAN                             AT398833    2IN20102015230920151661166pkjmast85.asc              Pekerja Baru                  FTPSB JENGKA 22                         0000000
FI16615035AMIR SARIFUDIN                          AT399334    2IN20102015230920151661166pkjmast85.asc              Pekerja Baru                  FTPSB JENGKA 22                         0000000
FI16615036DENI HARI AWAN                          AT399321    3IN20102015230920151661166pkjmast85.asc              Pekerja Baru                  FTPSB JENGKA 22                         0000000
