FI16615027RIANDI                                  AT 201409   2IN24062015010720151661166pkjmast83.asc                                            FTPSB JENGKA 22                         0000000
FI16615028MURAD TUSANI                            AT 201234   2IN24062015010720151661166pkjmast83.asc                                            FTPSB JENGKA 22                         0000000
FI16615029RIANDI                                  AT 201409   2IN24062015010720151661166pkjmast83.asc                                            FTPSB JENGKA 22                         0000000
FI16615030JUNAIDI                                 AT 306687   2IN24062015010720151661166pkjmast83.asc                                            FTPSB JENGKA 22                         0000000
