I166120124NASIP                                   AR753262    2IN20042012240320121661166pkjmast56.asc                                            FTPSB JENGKA 22                         0000000
I166120125MUHAMMAD ARAPAN                         A1548583    2IN20042012240320121661166pkjmast56.asc                                            FTPSB JENGKA 22                         0000000
I166120126ARI                                     AR753264    2IN20042012240320121661166pkjmast56.asc                                            FTPSB JENGKA 22                         0000000
I166120127SAHRIL                                  S722855     3IN20042012240320121661166pkjmast56.asc                                            FTPSB JENGKA 22                         0000000
I166120128MUHAMAD DANI HAMDANI                    AR753260    3IN20042012240320121661166pkjmast56.asc                                            FTPSB JENGKA 22                         0000000
