FD16614001MONDAL SARIFUL                          L4050523    2ID04032014180320141661166pkjmast75.asc                                            FTPSB JENGKA 22                         0000000
FD16614002SEKH SAFI                               J1871115    2ID04032014180320141661166pkjmast75.asc                                            FTPSB JENGKA 22                         0000000
FD16614003SK SAMIM AHAMED                         L2059820    2ID04032014180320141661166pkjmast75.asc                                            FTPSB JENGKA 22                         0000000
