FI16615012MUHDAN                                  A8875207    3IN05032015130320151661166pkjmast78.asc              Pekerja Baru                  FTPSB JENGKA 22                         0000000
FI16615013TAUFIK                                  A9090318    3IN05032015130320151661166pkjmast78.asc              Pekerja Baru                  FTPSB JENGKA 22                         0000000
FI16615014MARJAN                                  AR470883    2IN05032015130320151661166pkjmast78.asc              Pekerja Baru                  FTPSB JENGKA 22                         0000000
FI16615015HAERIL ANWAR                            AR470884    2IN05032015130320151661166pkjmast78.asc              Pekerja Baru                  FTPSB JENGKA 22                         0000000
