I166120133SAHIDUN                                 A1756371    2IN19072012010720121661166pkjmast58.asc              Pekerja Baru                  FTPSB JENGKA 22                         0000000
I166120134NURSIN                                  A2041931    2IN19072012010720121661166pkjmast58.asc              Pekerja Baru                  FTPSB JENGKA 22                         0000000
I166120135HAMDANI                                 A1757093    2IN19072012010720121661166pkjmast58.asc              Pekerja Baru                  FTPSB JENGKA 22                         0000000
I166120136JOHANDI                                 A2044106    2IN19072012010720121661166pkjmast58.asc              Pekerja Baru                  FTPSB JENGKA 22                         0000000
I166120137MASKUM                                  AP208253    2IN19072012010720121661166pkjmast58.asc              Pekerja Baru                  FTPSB JENGKA 22                         0000000
I166120138SAPII                                   A2044105    2IN19072012010720121661166pkjmast58.asc              Pekerja Baru                  FTPSB JENGKA 22                         0000000
