FI00717017MASYUR                                  AT976598    3IN                              PEKERJA BARU                            160320170103201700700000002
FI00717018MUSTIADI                                AT995122    3IN                              PEKERJA BARU                            160320170103201700700000002
FI00717019ADI PUTRA                               AT996288    3IN                              PEKERJA BARU                            160320170103201700700000002
FI00717020ATHAR                                   AT996166    3IN                              PEKERJA BARU                            160320170103201700700000002
FI00717021KAMARUDIN                               A6735184    3IN                              PEKERJA BARU                            160320170103201700700000002
FI00717022SOLIHIN                                 AT996405    3IN                              PEKERJA BARU                            160320170103201700700000002
JB00716001MOHD FAIZ BIN BORHAN                    8708222359336MA                              PEKERJA AM                              010720163006201600700000002

